:020000040800F2
:10000000D0650020450100085D3700085321000835
:100010007B3600087B150008454E000800000000F4
:100020000000000000000000000000005D42000829
:100030000919000800000000B53C00084945000807
:100040005F0100085F0100085F0100085F01000810
:100050005F0100085F0100085F0100085F01000800
:100060005F0100085F0100085F0100085F010008F0
:100070005F0100085F0100085F0100085F010008E0
:100080005F0100085F0100085F0100085F010008D0
:100090005F0100085F0100085F0100085F010008C0
:1000A0005F0100085F0100085F0100085F010008B0
:1000B0005F0100085F010008C54700085F010008F4
:1000C0005F0100085F0100085F0100085F01000890
:1000D0005F010008754900085F010008FD4900083C
:1000E0005F0100085F0100085F0100085F01000870
:1000F0005F0100085F0100085F0100085F01000860
:100100005F0100085F0100085F0100085F0100084F
:100110005F0100085F0100085F0100085F0100083F
:100120005F0100085F0100085F0100085F0100082F
:10013000DFF80CD000F072FF00480047E5620008CD
:10014000D06500200648804706480047FEE7FEE7E6
:10015000FEE7FEE7FEE7FEE7FEE7FEE7FEE7FEE777
:100160007D45000831010008A0F14101192900D89E
:100170002030704740EA01039B0703D009E008C91B
:10018000121F08C0042AFAD203E011F8013B00F85C
:10019000013B521EF9D27047D2B201E000F8012BA8
:1001A000491EFBD270470022F6E710B513460A46F7
:1001B00004461946FFF7F0FF204610BD421E12F814
:1001C000013F002BFBD111F8013B02F8013B002B52
:1001D000F9D1704730B505462A460B4612F8010B97
:1001E00013F8014B08B1A042F8D01CB1002802D08E
:1001F0006D1CF1E7284630BDCAB2401E10F8011F41
:100200008A4202D00029F9D100207047421C10F820
:10021000011B0029FBD1801A704710B5002200E0B5
:10022000521C835C8C5CA34201D1002BF8D1D8B264
:10023000E1B2401A10BD10B5044600E0401C03783E
:10024000002BFBD100E0401C521E04D311F8013BEF
:100250000370002BF7D100210170204610BD30B58E
:1002600005460020034600E05B1C934205D2EC5C8F
:10027000C85C201A01D1002CF6D130BD2DE9FF4F0A
:10028000087883B09946FF2805D0491C2D2804D052
:100290000024002008E000200BE00124F9E700EB37
:1002A000800003EB4000491C0B78FF2BF7D104B111
:1002B000404200230293147819461D462D2C01D08C
:1002C0002B2C04D1521C2D2C13D000240294AA46AE
:1002D0001478FF2C0FD00A25A3FB057801FB0581BC
:1002E0004FF0000C03FB0C11521CE3194AEB010107
:1002F000EEE70124EAE7814453EA010002D019F550
:10030000C87F06DA03980021C0E9001107B0BDE8F4
:10031000F08F0025AE4E2F46DFF8B882184600F069
:1003200059FECDE90001B9F1000002DAC9F100047B
:1003300000E004460023A74A1AEB030B42EB045AE1
:1003400012E0E00707D02A4633463846414600F01F
:10035000B4FA074688462A4633461046194600F046
:10036000ACFA05460E466410002CEAD1DDE9000126
:10037000B9F1000F5A46534606DA00F010FB3A4630
:10038000434600F00CFB05E000F097FA3A4643467E
:1003900000F093FA029A0AB181F00041039AC2E98F
:1003A0000001B3E72DE9FF4F1F468DB0D7E90146A5
:1003B0004FF0FF382E2045464FF000090B90B969E9
:1003C0006D1C0E988847396A824688470028F6D106
:1003D000BAF1FF3F0AD024F4D064002E11DDBAF147
:1003E0002B0F08D0BAF12D0F0BD102E0404611B00F
:1003F0008DE744F48064B9696D1C0E988847824685
:10040000761E6946600501D52D2000E02B208DF871
:10041000000001F1010B0DF1200809E0B9696D1C24
:100420000E98884782460F9844F40074761E056043
:10043000002E02DDBAF1300FF0D00B998A453ED183
:1004400044F0800406E00F99681CA9F1010944F406
:1004500000740860B9696D1C761E0E988847824644
:100460003028F0D02BE00B998A4505D1200603D423
:1004700044F08004761E18E0504604F089FF08B36B
:100480000DF11301761E44F400748B4508D2AAF1D5
:1004900030000BF8010B200607D5A9F1010003E09D
:1004A000200602D409F101008146A00502D50F996A
:1004B000681C0860B9696D1C0E9888478246002E3A
:1004C000D1DC53E0002E51DDBAF1650F02D0BAF154
:1004D000450F4BD1A00549D5B9696D1C24F4407472
:1004E000761E0E9888478246002E0CDD2B2804D0FD
:1004F000BAF12D0F07D144F48074B9696D1C0E98C0
:1005000088478246761EE00501D52D2100E02B218B
:1005100008F8011BCDF82C8021E00DF12901761E91
:1005200044F4007488450CD2AAF1300010F0FF00AA
:1005300088F8000002D10B99884509D908F1010813
:1005400006E0E00501D5244801E042F20F70814643
:10055000B9696D1C0E98884782460F980560002E79
:1005600004DD504604F014FF0028D6D1F9690E9836
:100570008847FF208BF8000088F8000000200690D4
:1005800007904B466A4608A906A8FFF777FEA00524
:1005900002D46FF001002AE714F0240F0AD0E0071C
:1005A00014D1DDE906123868031D3B600068C0E91C
:1005B00000120BE0DDE9060100F0FAFA0146E0075F
:1005C00004D13868021D3A600068016028460EE7D1
:1005D000000014400000F03FF1D8FFFFF0B480EAC3
:1005E0000102D40F4200B2EB410F02D2024608468C
:1005F00011464A0042D0C30DDDB2C1F3C752AD1A55
:10060000202D35DAC1F3160141F4000204B1524243
:10061000C5F1200602FA06F12A411044B3EBD05F7F
:1006200023D0C4B1012DA0EBC35009DCF0BC4FF0C6
:10063000004202EAC352DBB200F5000000F0D7BB73
:10064000400000F1807000EBC350A0F1807040EAE0
:10065000D170490009E0490841EAC071A0EBC350DC
:1006600000F50000400800EBC350F0BC00F0B6BB42
:100670006142012202EB4101001BF6E7F0BC70472A
:1006800081F00041AAE780F00040A7E780EA01027C
:1006900010B502F00043400022D04A001FD0010EE6
:1006A00001EB1261C0F35600C2F3560240F40000A1
:1006B00042F40002A0FB022000047F39140400D0A1
:1006C000401C50EA124001D44000491EC2B20C0640
:1006D00004EBD010401C4008802A02D003E0002028
:1006E00010BD20F00100002900DA0020184310BDE1
:1006F00030B480EA010202F0004530F0004221F0FF
:10070000004013D090B1C30DD40DC2F31601C0F355
:100710001600E41A41F4000140F400027D349142D5
:1007200001D3641C00E04900002C02DA30BC002038
:1007300070474FF400000023914201D3891A03430C
:1007400040084FEA4101F7D151B1914202D14FF037
:10075000004105E002D24FF0010101E06FF001011C
:1007600003EBC450284430BC00F038BB2DE9FE4FE9
:10077000804681EA0300C00F0C46009021F0004142
:1007800023F00045B8EB0200A94105D240462146BE
:1007900090461C460B46024623F00040104347D0CB
:1007A000270DC7F30A00C3F30A510290401A0190C3
:1007B00040286BDAC3F3130040F4801B0098924684
:1007C00020B10023D2EB030A63EB0B0B01985946CF
:1007D000C0F14002504600F062FA06460D4650460F
:1007E0005946019A00F07AFA10EB080061410024A2
:1007F00087EA115284EAE7731A4340D0009A62B341
:10080000019A012A4FEA075215DC001B61EB020135
:100810004FF0004202EA0752CDE90042001C41F5C8
:10082000801132462B4600F01FFB03B0BDE8F08F6D
:1008300040462146F9E7001B61EB0201001C41F52F
:10084000801300185B412018A2F5001747EB030145
:1008500040EAD570B6196D4111E06D084FEA3606D1
:1008600045EAC0754FEA0752001B61EB0201001C0C
:1008700041F5801149084FEA3000001951413246D4
:100880002B4603B0BDE8F04F00F0DFBA009801221C
:1008900040000023D0EB020263EBE0730098214696
:1008A0004FEAE074B8EB000061EB0401E9E783F084
:1008B00000435BE781F0004158E72DE9FE4F81EAF4
:1008C000030404F0004421F0004100944FF0000BB9
:1008D00023F0004350EA01045ED052EA03045BD0E7
:1008E000C3F30A54C1F30A552C44A4F2F33401941F
:1008F000A0FB0254C1F3130141F48011C3F31303AD
:1009000043F4801301FB024400FB034E840A970A60
:1009100044EA815447EA8357A4FB076802958D0A8D
:1009200005FB07854FEA932C04FB0C542705029D19
:100930004FEA065847EA1637B5EB08056EEB070C89
:10094000870E920E47EA811742EA8312A7FB020143
:10095000B6EB0B0164EB00042B0D43EA0C335E187D
:1009600044EB1C50DA465146E7FB0201C5F3130481
:100970004FEA0B3343EA14534FEA0432019C43EA33
:100980000603A4F10C040294009CCDE900B400F02D
:100990006BFA03B0BDE8F08F00200146F9E72DE9BE
:1009A000F04D81EA030404F0004B21F000451446A9
:1009B0004FF0000A23F0004150EA050220D054EA2B
:1009C00001021DD0C5F30A570246C5F31303C1F354
:1009D0001300C1F30A5640F4801543F48013A7EBCB
:1009E0000608101BD64608F2FD3873EB050002D34B
:1009F00008F1010801E092185B41B8F1000F03DA39
:100A000000200146BDE8F08D00204FF4801106461D
:100A100084460EE0171B73EB050705D3121B63EB2F
:100A2000050306434CEA010C49084FEA30009218CE
:100A30005B4150EA0107EDD152EA030012D082EA8D
:100A4000040083EA0501084305D0101BAB4106D220
:100A50000122002306E000224FF0004302E06FF085
:100A6000010253101AEB06004CEB085110EB0A0080
:100A700041EB0B01BDE8F04D00F0E7B9C10F80EA92
:100A8000E0700844CA079623002100F0B0B996230D
:100A90000022114600F0ABB90EB5C10F80EAE0703C
:100AA0000844CA07002140F233438DE80E000A468D
:100AB0000B4600F0D9F903B000BD00F0004220F071
:100AC0000040C10DC0F3160040F400007F2901DA98
:100AD00000207047962903DCC1F19601C84001E06F
:100AE00096398840002AF4D04042704770B5C1F36F
:100AF0000A5201F000450024C1F3130140F2FF3314
:100B000041F480119A4201DA002070BD40F2334373
:100B10009A42A2F2334203DC524200F0CFF800E0E6
:100B200090402C43F1D0404270BD00F0004230F0C4
:100B300000400AD0C10D01F56071C0F3160042EA11
:100B40000151C20840071143704700200146704719
:100B500030B5041E71F1000404DB4FF00044404244
:100B600064EB0101141E73F1000405DB1C464FF019
:100B70000043524263EB04038B4208BF824230BD04
:100B800030B5041E71F1000404DB4FF00044404214
:100B900064EB0101141E73F1000405DB1C464FF0E9
:100BA0000043524263EB0403994208BF904230BDB8
:100BB00001F0004330B421F0004150EA010206D0B8
:100BC0000A0DA2F56072C1F31301002A02DC30BCE9
:100BD00000207047440F44EAC104C100E01830BC53
:100BE00000EBC25000F0FAB8002801DBC0F1004071
:100BF000002901DBC1F1004181427047002801DB7F
:100C0000C0F10040002901DBC1F10041884270477A
:100C100030B50B46014600202022012409E021FACC
:100C200002F59D4205D303FA02F5491B04FA02F5C9
:100C30002844151EA2F10102F1DC30BD2DE9F05F60
:100C40000546002092469B4688460646814640243B
:100C50001BE0284641464746224600F02FF85346FF
:100C60005A46C01A914110D311461846224600F048
:100C700016F82D1A67EB01084F4622460120002185
:100C800000F00DF817EB00094E41201EA4F10104FD
:100C9000DFDC484631462A464346BDE8F09F202A1D
:100CA00004DB203A00FA02F1002070479140C2F1C3
:100CB000200320FA03F3194390407047202A04DBF5
:100CC000203A21FA02F00021704721FA02F3D040C5
:100CD000C2F120029140084319467047202A06DBE2
:100CE000CB17203A41FA02F043EAE07306E041FAFA
:100CF00002F3D040C2F120029140084319467047E8
:100D0000426842B1016811F8013B23B1521EC0E9AB
:100D10000012184670470121C160881E7047426862
:100D20005AB1C368016843B983688B4205D0491E34
:100D3000521CC0E90012002070474FF0FF3070478E
:100D40000FB4002300B589B00CA900910B996FF086
:100D50000042CB601E4B06931E4B07930423CDE944
:100D600001321D4A089202466B460020FFF71AFB2B
:100D700009B05DF814FB70B586B006464FF0FF3041
:100D80000091CDE90101002015460C460490324641
:100D9000694604A8FFF7D4FF02460498211825B13C
:100DA00008B1084600E020462860049800280DD0CD
:100DB000002A02DD0098884208D0081B0094CDE983
:100DC00001043246694604A8FFF7BAFF06B070BDB9
:100DD000010D00081F0D0008411000080029A8BFE0
:100DE0007047401C490008BF20F00100704710B454
:100DF000B0FA80FC00FA0CF050EA010404BF10BC09
:100E0000704749B1CCF1200421FA04F411FA0CF135
:100E100018BF012121430843A3EB0C01CB1D4FEA6E
:100E200000614FEA102042BF002010BC704700EB69
:100E3000C35010440029A4BF10BC7047401C490097
:100E400008BF20F0010010BC704710B5141E73F1EC
:100E5000000408DA401C41F1000192185B411A437A
:100E600001D120F0010010BD2DE9F04D92469B46C6
:100E700011B1B1FA81F202E0B0FA80F2203290466C
:100E8000FFF70DFF04460F4640EA0A0041EA0B0156
:100E900053465A46084313D0114653EA010019D06D
:100EA000C8F140025046FFF709FF05460E4650467E
:100EB00059464246FFF7F3FE084305D0012004E0FF
:100EC00020463946BDE8F08D0020054346EAE0762D
:100ED0002C4337430A986305E40AA0EB080000227C
:100EE000FD0A44EA47540A3002D500200146E9E7EA
:100EF000010510196941DDE9084500196941BDE89E
:100F0000F04DA2E770B521F0004303430CD0C1F3CC
:100F10000A550024D5EB040564EB0403D617AD1A7B
:100F2000B34102DB0020014670BD201841EB0251A5
:100F300070BD2DE9F04D00231A461B1A8A4103DBD0
:100F400000200146BDE8F08DC1F30A52C1F3130140
:100F500041F480154FF0000BD10702D100186D410C
:100F6000521E0027044640F2FF11384601EB620A88
:100F70003E468046024600204FF48011FFF79EFE59
:100F8000C2197141BB1846EB0100B4EB030C75EBC1
:100F9000000C04D3E41A65EB000517460E4624192D
:100FA00008F101006D4180463428E3DDF91946EB74
:100FB0000600091BA84103D24FF0FF32134601E09F
:100FC000002213461BEB070046EB0A51BDE8F04D2B
:100FD000FFF73BBF0EB540F2334202920022CDE94B
:100FE00000221346FFF740FF03B000BDC1F30A52D1
:100FF000C1F3130140F2FF3341F480119A4202DA47
:1010000000200146704740F233439A42A2F2334235
:1010100002DC5242FFF752BEFFF741BE064C074DBD
:1010200006E0E06840F0010394E8070098471034B8
:10103000AC42F6D3FFF780F8FC7900081C7A000870
:10104000C0B24FF4F05100F001B800007F2801D980
:10105000002208E0064A02EB5002C007127800D1D5
:10106000120902F00F020120904008407047000072
:10107000A879000870B58C1810F8015B15F007030B
:1010800001D110F8013B2A1106D110F8012B03E021
:1010900010F8016B01F8016B5B1EF9D12B0705D429
:1010A0000023521E0DD401F8013BFAE710F8013B72
:1010B000CB1A921C03E013F8015B01F8015B521E8E
:1010C000F9D5A142D8D3002070BD2DE9FE4F0446CA
:1010D0000D4616460027B846B94600212D2000F0DF
:1010E00035FA642004F03AFF2B21312000F02EFA6B
:1010F0000A212C2000F02AFA28212D2000F026FABF
:1011000000212E2000F022FA00211E2000F01EFAFD
:1011100000211F2000F01AFA0021202000F016FA0A
:101120000C2004F01BFFBA4616E06A4601A902A88B
:1011300000F02EF9BDF80800384407B2BDF80400ED
:1011400040440FFA80F8BDF8000048440FFA80F9D7
:101150000AF1010000F0FF0ABAF10A0FE5DB0A20EC
:1011600097FBF0F007B20A2098FBF0F00FFA80F836
:101170000A2099FBF0F00FFA80F97842C11700EBD2
:101180009171C1F387012170C8F10000C11700EB14
:101190009171C1F387012970C9F58070C11700EB07
:1011A0009171C1F38701317021781E2000F0CEF9D2
:1011B00029781F2000F0CAF93178202000F0C6F904
:1011C000BDE8FE8F2DE9F04F89B0064689461546E9
:1011D0009A4600200890BAF1000F06D0BAF1010F2C
:1011E00032D0BAF1020F2ED15EE02846FFF79DFC07
:1011F000CDE9060149464846FFF748FA31460190D5
:101200003046FFF743FA00900199FFF7E7F983466C
:10121000FFF78BFCCDE9020106F082F9CDE904016C
:10122000DDE90623FFF7BBFB0746FFF7C1FC0446D9
:101230002046FFF77AFCCDE9060104F04DFC074695
:10124000FFF7B6FC08905FE029462846FFF71EFA34
:10125000494601904846FFF719FA00900199FFF7B7
:10126000BDF98346FFF761FCCDE9020106F058F9AC
:10127000074688463046FFF758FC3A464346CDE9D4
:101280000401FFF78CFBCDE90601FFF791FC044652
:101290002046FFF74AFCCDE9060104F01DFC074695
:1012A000FFF786FC08902FE029462846FFF7EEF965
:1012B000314601903046FFF7E9F900900199FFF7B8
:1012C0008DF98346FFF731FCCDE9020106F028F9DC
:1012D000074688464846FFF728FC3A464346CDE98C
:1012E0000401FFF75CFBCDE90601FFF761FC044652
:1012F0002046FFF71AFCCDE9060104F0EDFB074696
:10130000FFF756FC089000BF00BF0A490898FFF796
:10131000BDF98346FFF709FC0746074A074BFFF76D
:101320003EFBCDE90601FFF7E1FB00B209B0BDE8E5
:10133000F08F00000000E1441F85EB51B81E09400A
:1013400010B501F0B5F9002000F057F8E5281DD1DF
:101350002B21312000F0FAF80A212C2000F0F6F8B9
:1013600028212D2000F0F2F800212E2000F0EEF8C8
:1013700000211E2000F0EAF800211F2000F0E6F80E
:101380000021202000F0E2F8002010BD0120FCE741
:101390002DE9F04704460D4616460027B846B946E3
:1013A000BA4616E032462946204600F047F80A20A1
:1013B00004F0D4FD2088384407B2288840440FFA4E
:1013C00080F8308848440FFA80F90AF1010000F0F3
:1013D000FF0ABAF10A0FE5DB0A2097FBF0F000B232
:1013E00020800A2098FBF0F000B228800A2099FBA8
:1013F000F0F000B23080BDE8F08770B504460025FB
:1014000001F0E6F9A62001F0BBF901F017FA054654
:10141000204601F0B5F901F011FA054601F0D8F9BE
:10142000A72001F0ADF901F009FA0546002001F00E
:101430007BF9054601F0E8F9284670BD2DE9FC412D
:1014400005460E46174601F0C3F9A62001F098F9AB
:1014500001F0F4F9322001F093F901F0EFF901F015
:10146000B7F9A72001F08CF901F0E8F900240EE0AB
:10147000052C05D1002001F057F90DF8040004E017
:10148000012001F051F90DF80400601CC4B2062CD3
:10149000EEDB01F0B9F99DF800009DF8011000EBBA
:1014A000012000B228809DF802009DF8031000EB97
:1014B000012000B230809DF804009DF8051000EB7B
:1014C000012000B23880BDE8FC812DE9FE430446CE
:1014D0000D4616461F4600202080288030809FB38E
:1014E00080461DE06A4601A902A8FFF7A7FF2088F1
:1014F000BDF80810084400B220802888BDF8041008
:10150000084400B228803088BDF80010084400B2BA
:101510003080052004F022FD08F1010000F0FF08F2
:10152000B845DFDBB4F9000090FBF7F000B2208093
:10153000B5F9000090FBF7F000B22880B6F9000082
:1015400090FBF7F000B23080BDE8FE8370B5054631
:101550000C4601F03DF9A62001F012F901F06EF9F8
:10156000284601F00DF901F069F9204601F008F96B
:1015700001F064F901F048F970BD00BFFEE700001A
:1015800010B5012001F080F904463CB131480078E3
:1015900020B93148047001202E49087064B12D48EB
:1015A0000078012808DB2B4800781E2804DC294835
:1015B0000078401C274908703CBB2648007800286A
:1015C00023DD244800781E281FDA234800780128EC
:1015D00015D122A003F014FD2348407918B1002052
:1015E000214948710AE020488078012803D1002071
:1015F0001D49887002E001201B49887000E000BF8F
:1016000000BF00201349087023E014BB1148007884
:101610001E281EDB10480078012815D113A003F006
:10162000EFFC1148407918B100200F4948710AE0D9
:101630000D488078012803D100200B49887002E012
:1016400001200949887000E000BF00BF0020014967
:10165000087010BDD20B0020D30B00204B657931F0
:101660005F53686F72740A00CC0B00204B657931B0
:101670005F4C6F6E670A000008B50121082002F078
:101680002BFB0820ADF8000010208DF8030003208C
:101690008DF802006946024800F07BFC08BD00009E
:1016A000000C01402DE9FC5F064600F057F80024CD
:1016B00004E0305D00F0FAF8601CC4B2082CF8DBDE
:1016C000442000F0F3F800F049F8002404E0305D15
:1016D00000F0ECF8601CC4B2082CF8DBBE2000F06F
:1016E000E5F800F0ADF8834600F0AAF881464FEA2D
:1016F000092005B245EA0B05002D0EDAE843401C2F
:10170000FFF7CAF9074600220C4BFFF7D6F8CDE9E0
:101710000001FFF74DFA82460CE02846FFF7BCF9BE
:1017200007460022054BFFF7C8F8CDE90001FFF797
:101730003FFA82465046BDE8FC9F00000000B03FE3
:1017400010B5FFF799FF0821034800F000FD00F0F5
:1017500097F800F02DF810BD000C014010B500F016
:101760008FF800F025F8552000F0A0F810BD00001B
:1017700008B50820ADF8000048208DF80300694640
:10178000014800F006FC08BD000C014008B5082027
:10179000ADF8000010208DF8030003208DF8020042
:1017A0006946024800F0F5FB08BD0000000C01404E
:1017B00010B50024FFF7DCFF04E0601CC4B2012078
:1017C00004F0F2FB08210F4800F0B6FC08B1642CCD
:1017D000F3DB642C01DB012010BD002404E0601C5D
:1017E000C4B2012004F0E0FB0821064800F0A4FC8C
:1017F00008B9F02CF3DBF02C01DB0120ECE7002032
:10180000EAE70000000C014010B5FFF7BFFF082118
:101810000A4800F09AFC0A2004F0C6FBFFF7A8FF74
:101820000821064800F088FC012801D1012400E0CD
:1018300000242D2004F0B8FB204610BD000C014010
:1018400070B50026002408E0FFF7DEFF054605FA24
:1018500004F03043C6B2601CC4B2082CF4DB30463E
:1018600070BD70B50546332000F020F8002404E078
:10187000FFF7E6FF2855601CC4B2082CF8DB70BDEA
:1018800010B5FFF783FF0821074800F05EFC40F227
:10189000EE2004F089FB0821034800F058FC0F20DB
:1018A00004F082FB10BD0000000C014070B504463E
:1018B000FFF76CFF002522E004F00106641076B10A
:1018C0000821104800F041FC082004F06DFB0821BD
:1018D0000C4800F03CFC3A2004F066FB0DE00821C7
:1018E000084800F032FC462004F05EFB0821054861
:1018F00000F02DFC022004F057FB681CC5B2082D37
:10190000DADB70BD000C01407047000030B58BB0D1
:1019100000200790089009900A90012536A336A26E
:1019200035A138A003F06CFB07A8002102910391B8
:10193000CDE90410084601213C232FA2CDE9001077
:101940002DA12DA001F074F9002843D1089A91B27D
:10195000079800F021FAFA2000F0F6F80446002C6F
:101960002FD0204601F02CFE02282AD1204601F07B
:10197000F8FC062820D2DFE800F0030B0F13171B3A
:1019800028A003F03DFB002500202B49487117E0FB
:101990002AA003F035FB13E02FA003F031FB0FE08A
:1019A00036A003F02DFB0BE03CA003F029FB07E081
:1019B00043A003F025FB03E04CA003F021FB00BF94
:1019C00000BF1D484079401C1B49487107A800F022
:1019D000B7FF07E018484079401C174948714AA0F2
:1019E00003F00EFB14484079022801DD02F0AEFD41
:1019F00028460BB030BD0000362D362D6465766963
:101A00006365000050524F49443A202573094155FF
:101A100049463A2025730944455649443A25730DF1
:101A20000A000000546970733A09C1ACBDD3B3C950
:101A3000B9A60D0A00000000B85500205741524ECB
:101A40003A09C1ACBDD3CAA7B0DCA3BAD0ADD2E9C4
:101A5000B4EDCEF30D0A00005741524E3A09C1AC25
:101A6000BDD3CAA7B0DCA3BAB7C7B7A8B5C4636C67
:101A700069656E7469640D0A000000005741524E9A
:101A80003A09C1ACBDD3CAA7B0DCA3BAB7FECEF148
:101A9000C6F7CAA7B0DC0D0A000000005741524E3D
:101AA0003A09C1ACBDD3CAA7B0DCA3BAD3C3BBA7A4
:101AB000C3FBBBF2C3DCC2EBB4EDCEF30D0A0000F6
:101AC0005741524E3A09C1ACBDD3CAA7B0DCA3BA44
:101AD000B7C7B7A8C1B4BDD328B1C8C8E7746F6B86
:101AE000656EB7C7B7A8290D0A0000004552523AE3
:101AF00009C1ACBDD3CAA7B0DCA3BACEB4D6AAB4D0
:101B0000EDCEF30D0A0000005741524E3A094D51F7
:101B100054545F5061636B6574436F6E6E6563749C
:101B2000204661696C65640D0A00000010B54FF431
:101B300080710348FEF737FB00200249088010BD82
:101B4000B84C0020A60B002070B50546002400BF4D
:101B500000F044F980B90DA10E48FEF73BFB0446A6
:101B600054B13A212046FEF747FB044614B1641CE9
:101B7000204670BD0020FCE7052004F0EFF9281E88
:101B8000A5F101018DB2E3D100BFF2E74950442C29
:101B900000000000B84C002000B5A1B0FA2004F00D
:101BA000DDF9FFF7C3FF32A003F02AFA03E04FF498
:101BB000967004F0D3F9C8222FA130A000F0C4F829
:101BC0000028F4D12FA003F01BFA03E04FF4967025
:101BD00004F0C4F9C82228A12DA000F0B5F800280F
:101BE000F4D12FA003F00CFA03E04FF4967004F048
:101BF000B5F9C82220A12DA000F0A6F80028F4D144
:101C00002EA003F0FDF9802101A8FEF7CCFA2DA348
:101C10002FA230A101A803F003FA03E04FF496705D
:101C200004F09CF9C82231A101A800F08DF8002829
:101C3000F4D130A003F0E4F9802101A8FEF7B3FA53
:101C400040F25B732EA232A101A803F0E9F903E090
:101C50004FF4FA7004F082F9C82234A101A800F010
:101C600073F80028F4D133A003F0CAF921B000BD05
:101C700041540D0A000000004F4B000041540D0A72
:101C80000D00000043574D4F44450D0A0000000071
:101C900041542B43574D4F44453D310D0A00000040
:101CA00041542B4357444843500D0A0041542B43A1
:101CB00057444843503D312C310D0A0043574A41A7
:101CC000500D0A0031323334353637380000000009
:101CD0004E45540041542B43574A41503D222573F1
:101CE000222C222573220D0A00000000474F5420A9
:101CF0004950000043495053544152540D0A0000CA
:101D0000382E3133332E3139372E31300000000078
:101D100041542B43495053544152543D2254435053
:101D2000222C222573222C25640D0A00434F4E4E8F
:101D3000454354004553503832363620496E697455
:101D4000204F4B0D0A0000002DE9F04105460E46DC
:101D500014462846FEF75AFA87B23946284603F059
:101D600019F90FE000F03AF848B931460948FEF792
:101D700031FA20B1FFF7DAFE0020BDE8F0810A2039
:101D800004F0ECF8201EA4F101018CB2EAD101208C
:101D9000F3E70000B84C002030B589B005460C468A
:101DA000FFF7C4FE224608A101A803F039F9C822B2
:101DB00009A101A8FFF7C8FF18B92146284603F07A
:101DC000E9F809B030BD000041542B434950534558
:101DD0004E443D25640D0A003E0000000A4800887C
:101DE00008B90120704708480088084909888842D6
:101DF00003D1002004490880F4E703480088034920
:101E000008800120EEE70000A60B0020A80B0020B0
:101E1000044900E0521C11F8013B002BFAD1500894
:101E200070470000A40A002010B50446062C22D2F8
:101E3000DFE804F003080D12171C0121084601F029
:101E40003BFF18E00121022001F036FF13E00121E1
:101E5000042001F031FF0EE00121082001F02CFFE9
:101E600009E00121102001F027FF04E001212020DA
:101E700001F022FF00BF00BF10BD70B504460D4643
:101E800016462046FFF7D0FF32462946204600F08E
:101E90005AF8204600F001F870BD3EB504462046D1
:101EA00002F05EFD0546062C33D2DFE804F0030B9A
:101EB000131B232A4FF47A70ADF804004820ADF8C4
:101EC000000026E040F2E730ADF804004720ADF80E
:101ED00000001EE04FF47A70ADF804004820ADF821
:101EE000000016E040F2E630ADF804004620ADF800
:101EF00000000EE05920ADF804004F20ADF80000BE
:101F000007E040F2E730ADF804004720ADF80000EC
:101F100000BF00BF0020ADF80600ADF802008DF84C
:101F200008006946284602F0C9FC0121284602F053
:101F300099FC01221146284602F0B7FC00212846F0
:101F400002F096FC3EBDF8B506460C4615464FF429
:101F5000A06001F03DFC26B1012E06D0022E0CD16E
:101F600007E01C208DF8000007E01D208DF8000020
:101F700003E01E208DF8000000BF00BF8DF8014077
:101F80008DF8025001208DF80300684601F0E8FB4F
:101F9000F8BD2DE9F041024600250026002000236F
:101FA0000024002791F803C00CF00F0591F803C03E
:101FB0000CF0100CBCF1000F03D091F802C04CEAF9
:101FC000050591F800C0BCF1000F31D01468002065
:101FD0002BE04FF0010C0CFA00F3B1F800C00CEA52
:101FE00003069E4220D183004FF00F0C0CFA03F73A
:101FF000BC4305FA03FC4CEA040491F803C0BCF1AD
:10200000280F06D14FF0010C0CFA00FCC2F814C0E6
:102010000AE091F803C0BCF1480F05D14FF0010C64
:102020000CFA00FCC2F810C0401C0828D1D3146080
:10203000B1F800C0BCF1FF0F34DD546800202EE081
:1020400000F1080C4FF0010808FA0CF3B1F800C0D9
:102050000CEA03069E4221D183004FF00F0C0CFACC
:1020600003F7BC4305FA03FC4CEA040491F803C0EF
:10207000BCF1280F05D100F1080C08FA0CF8C2F8E1
:10208000148091F803C0BCF1480F07D100F1080C8F
:102090004FF0010808FA0CF8C2F81080401C08281C
:1020A000CED35460BDE8F081F0B50A460023002489
:1020B0000021002500F00046B6F1004F02D11D4E70
:1020C000F16901E01B4E7168C0F3034583B200F46F
:1020D0004016B6F5401F08D121F07061154E7668A4
:1020E00026F07066134F7E6012E000F48016B6F59D
:1020F000801F06D1032606FA05F4A14341F0706162
:1021000006E0460D360103FA06F6B14341F0706170
:1021100022B1460D360103FA06F6314300F00046BF
:10212000B6F1004F02D1034EF16101E0014E716042
:10213000F0BD0000000001400246002093680B4003
:102140000BB1012000E00020704741617047016140
:10215000704700BFFEE7000000B591B04FF4A060EB
:1021600001F036FBFFF754FE5C49086003F0D4FE33
:10217000012200210220FFF780FE4FF4165002F0EA
:1021800063FE4FF4E13002F0AFFE02F027FA00F0F8
:10219000B3FBFFF7D5FA5248FFF763FBFFF7D0F820
:1021A000504A51495148FEF790FF00F093FB01F06F
:1021B000E1FB002001F099FB002001F0A4FB4CA101
:1021C00004A802F02DFF04AA0321002001F086FCE0
:1021D00004F0A4F94A484B49086000204A490860C5
:1021E0004FF4FA70494908600020494908604DE001
:1021F00000BF484800680128FBD04749072004F089
:102200004CF9454800788007800B4349497840EAFB
:10221000012041498978084340493D4A126841F804
:1022200022003D48C0788007800B3B49097940EA8D
:1022300001203949497908433949354A126841F83A
:10224000220036483249096850F821002D490968B2
:10225000884206D231482E49096850F821002949A0
:1022600008602E482A49096850F821002649096863
:10227000884206D929482649096850F82100224990
:10228000086023480068401C214908602048006815
:102290001E4909688842ABDB20481D49096850F88F
:1022A00021002049086020482049214A214BCDE9DE
:1022B00000210290194A15480168194804F09CF958
:1022C00002E0052003F04AFE1B491C4801F0B6FD60
:1022D0000128F6D101F004FB11B000BD4C0B002029
:1022E0005C0B0020680B0020660B0020640B0020B4
:1022F0002D2D2D204D41583330313032202D2D00E1
:10230000FFFF030014000020180000200000002040
:10231000200000201C8121422D000020C81B00202D
:10232000F81300201C000020100000200C000020EA
:102330000800002004000020CC0B0020C40B00206B
:1023400008B50121082001F0C7FC4FF48070ADF8FA
:10235000000004208DF8030069460248FFF719FECB
:1023600008BD0000000C014008B50121082001F063
:10237000B3FC4FF48070ADF8000003208DF802002C
:1023800010208DF8030069460148FFF702FE08BDE2
:10239000000C0140FEB50020A2490860A248A349F4
:1023A00008600020A249086064209E4908603AE065
:1023B000A0489C49096850F821109A480068643880
:1023C0009C4A42F820109C489649096850F8211010
:1023D000944800686438984A42F82010954891491A
:1023E000096850F8210091490968884206D291484D
:1023F0008C49096850F821008C4908608D4889494A
:10240000096850F821008A490968884206D9894834
:102410008449096850F821008549086081480068AE
:10242000401C804908607F480068B0F5FA7FBFDB38
:102430004FF4C8707B490860CEE07A480068401EBF
:102440007C4951F820007D49086000BF7C48006845
:102450000128FBD07B49072004F01FF87948007859
:102460008007800B7749497840EA012075498978CF
:10247000084370496B4A126841F822007148C078DD
:102480008007800B6F49097940EA01206D4949793D
:1024900008436949634A126841F822006548614966
:1024A000096850F8210065490968884231D96149B5
:1024B0005C4A126851F82210604A1268881AFEF7C6
:1024C000E6FA614908605A490968584A1268881A48
:1024D000FEF7DDFA044621465B480068FEF708F97E
:1024E00059490860594958480068FEF7CFF85649DD
:1024F000086008460068FEF7E0FA55490968081ABE
:102500005349086008460068002833DA0020086054
:1025100030E04849434A126851F82210474A12688D
:10252000501AFEF7B4FA48490860414909683F4A21
:102530001268881AFEF7ABFA044621464248006842
:10254000FEF7D6F84049086040493F480068FEF76A
:102550009DF83D49086008460068FEF7AEFA3C4920
:10256000096808443A49086008460068FF2801DD08
:10257000FF20086037480078012817D136480078D6
:10258000012813D13548006878280FDA34480068EC
:1025900065280BDA314800783249087030480078F5
:1025A0003149087028203149087110E02F4800791E
:1025B00068B12E480079401E2C4908710846007900
:1025C000012804D1002027490870274908701548C0
:1025D0000068401C1349086012480068B0F5FA7F93
:1025E000FFF62BAF1B481D491B4A1D4BCDE90021AF
:1025F0000290104A1E4801680F4803F0FDFF17487B
:10260000006870B115480068FEF746FA06464FF0BC
:102610006632184BFEF751F90446FEF767FA0F4988
:102620000860FEBD20000020FFFF03001400002012
:1026300018000020C81B0020F81300201C000020F8
:102640001C8121422D0000202800002000007F4333
:102650002400002010000020080000200C000020B2
:10266000040000203300002034000020CC0B0020A8
:10267000000000206666E63F10B500200A490860A9
:1026800001F0D6FD00200949C1F89401022003F0B1
:102690008BFC012004490860022003F085FC002027
:1026A0000249C1F8980110BD988121420080214261
:1026B00008B50121082001F00FFB6020ADF80000F3
:1026C00010208DF8030003208DF8020069460548AC
:1026D000FFF75FFC0120044908600449C1F8940138
:1026E00008BD0000000C0140988121420080214279
:1026F00010B500200A49086001F09AFD012009493F
:10270000C1F89401022003F04FFC01200449086045
:10271000022003F049FC00200249C1F8980110BDD5
:10272000988121420080214270B50546002401F0C5
:102730006DFD002616E000200F490860022003F01E
:1027400033FC01200D49C1F898016006040E0A48C7
:102750008438006808B1601CC4B2012003F024FC76
:10276000701CC6B2082EE6DB15B9FFF7C1FF01E009
:10277000FFF782FF204670BD9881214200802142F0
:1027800070B5044601F054FD00200F490860002593
:1027900017E0E0090C49091F08606006040E0220DA
:1027A00003F002FC01200949C1F89801022003F05E
:1027B000FBFB002004490860022003F0F5FB681CC5
:1027C000C5B2082DE5DB70BD988121420080214211
:1027D00010B501F02DFD0120094908600949C1F833
:1027E0009801042003F0E0FB002005490860042064
:1027F00003F0DAFB00200349C1F8980110BD000086
:10280000948121420080214210B501F011FD002089
:10281000084908600849C1F89401042003F0C4FB8A
:102820000120044908600449C1F89401042003F020
:10283000BBFB10BD988121420080214210B50024CD
:1028400001F0E4FC01200E49086003F0ADFB01201B
:102850000C49C1F8980103F0A7FB07E0601CC4B263
:10286000FA2C03DDFFF7D0FF012010BD04488038AB
:1028700000680028F2D10249091D086000BFF4E792
:10288000948121420080214210B5044614B10120F8
:102890000E4908700D48007870B101210C48FFF70F
:1028A0004BFC48B900200949087001210848FFF78E
:1028B00043FC48B9012010BD01210548FFF73CFC4D
:1028C000012801D1014908700020F4E750000020E0
:1028D0000008014008B50121042001F0FDF90120A4
:1028E000ADF8000048208DF8030069460148FFF765
:1028F00050FB08BD0008014008B50121142001F07B
:10290000EBF94FF40050ADF8000010208DF80300F3
:1029100003208DF8020069460648FFF73AFB0220C3
:10292000ADF8000069460448FFF733FB0020034977
:10293000086008BD0010014000080140B4012242B7
:1029400010B50446207B012802D1206802F090FBDC
:10295000002020606060A060207310BD024600234C
:1029600001230DE002F07F000870D2092AB1087837
:1029700040F080000870491C01E0184670475B1C5D
:10298000042BEFDD4FF0FF30F8E7000070B5C0B06A
:1029900004464FF480716846FDF705FC47A00088A7
:1029A00020804FF480716846FDF7FDFB444988683C
:1029B000FEF7BBF805462A460B4642A1684602F0E0
:1029C0002FFB69462046FDF7F9FB424800680028C6
:1029D00024DD40480068962820DC3F480078E8B1B4
:1029E0004FF480716846FDF7DEFB3A483BA1026870
:1029F000684602F015FB69462046FDF7DFFB4FF401
:102A000080716846FDF7CFFB384839A102686846F7
:102A100002F006FB69462046FDF7D0FB4FF48071BB
:102A20006846FDF7C0FB3648028836A1684602F0CA
:102A3000F7FA69462046FDF7C1FB4FF480716846FE
:102A4000FDF7B1FB2E48428832A1684602F0E8FA51
:102A500069462046FDF7B2FB4FF480716846FDF7EA
:102A6000A2FB274882882FA1684602F0D9FA69465E
:102A70002046FDF7A3FB4FF480716846FDF793FBFA
:102A80002C48C2782CA1684602F0CAFA6946204652
:102A9000FDF794FB4FF480716846FDF784FB2AA193
:102AA000684602F0BDFA69462046FDF787FB2046DE
:102AB000FDF7ACFBC0B240B070BD00007B00000071
:102AC000B85500202274656D70223A22252E326698
:102AD000222C00000C0000200800002022687265F3
:102AE0006174223A222564222C0000000400002098
:102AF00022626C6F6F64223A222564222C0000004F
:102B0000C40B00202268656172745F76223A222528
:102B100064222C002274656D705F76223A2225644F
:102B2000222C00002273706F325F76223A222564D5
:102B3000222C0000CC0B002022777272696E672273
:102B40003A222564220000007D00000070B5044692
:102B50000E460025206898B901202073304602F007
:102B60000BFB20602068E0B100206060A66003E0FD
:102B70000020216848556D1CA068A842F8D810E0D4
:102B80000220207303E00020216848556D1CA068D6
:102B9000A842F8D800206060A068B04201D20020AE
:102BA000206070BD2DE9FF5F07460D469046384610
:102BB000FDF72CFB86B22846FDF728FB1FFA80FAAA
:102BC0004FF00009B01D02F0D7FA04461CB90120ED
:102BD00004B0BDE8F09FB11D2046FDF7E4FA12A055
:102BE000016821608088A080324639462046FDF782
:102BF00022FB2846FDF70AFB8346012000210091B5
:102C00005B462A46CDE90208019121460A2000F0E0
:102C10005FF910B94FF0000901E04FF001092046BB
:102C200002F026FA4846D3E724637273702F00003F
:102C30002DE9FF4F83B082468B469146159C0025B7
:102C4000002002900F2701904846FDF7DFFA0FFAA7
:102C500080F8B9F1000F03D1012007B0BDE8F08F73
:102C600008F10200384487B2109808B145F0020517
:102C7000129878B145F004051298FDF7C7FAC0B272
:102C800002901398FDF7C2FA01460298001D08440D
:102C9000384487B2119820B1012804D0022808D105
:102CA00004E000BF07E045F00C0504E045F0140522
:102CB00001E00220D1E700BF149808B145F02405D7
:102CC000BAF1000F02D0BBF1000F01D10320C4E71D
:102CD00045F0C0055046FDF799FA06465846FDF7FF
:102CE00095FA3044001D384487B239462046FFF734
:102CF0002DFF206808B90420AFE739462068FDF7AA
:102D000052FA10216268501C606020688154D4E936
:102D10000023D118781FFFF721FE00B2019001981F
:102D2000002804DA2046FFF70BFE052095E76168CE
:102D300001980844606000216268501C606020684F
:102D4000815404216268501C6060206881544D21C8
:102D50006268501C60602068815451216268501C78
:102D600060602068815454216268501C6060206853
:102D700081546268501C606020688154042162683C
:102D8000501C6060206881546168481C6060206845
:102D900045540698010A6268501C6060206881549E
:102DA0000698C1B26268501C606020688154C8F304
:102DB00007216268501C6060206881546268501C62
:102DC0006060206800F80280D4E90012881842464A
:102DD0004946FDF730FA60684044606005F0040041
:102DE000B8B30026139808B938A013901298FDF7CD
:102DF0000DFA86B2310A6268501C60602068815406
:102E00006268501C606020688654D4E900128818FB
:102E100032461299FDF70FFA6068304460601398EB
:102E2000FDF7F4F986B2310A6268501C60602068D0
:102E300081546268501C606020688654D4E9001296
:102E4000881832461399FDF7F6F9606830446060DF
:102E500000BF05F08000C8B15046FDF7D7F986B233
:102E6000310A6268501C6060206881546268501C9E
:102E7000606020688654D4E90012881832465146B2
:102E8000FDF7D9F960683044606000BF05F040008C
:102E9000C8B15846FDF7BAF986B2310A6268501CCB
:102EA0006060206881546268501C606020688654AD
:102EB000D4E90012881832465946FDF7BCF960681B
:102EC0003044606000BF0020C7E600000000000042
:102ED0002DE9FF4F83B0834690469946139C002608
:102EE00000250020029001900027BBF1000F03D1C4
:102EF000012007B0BDE8F08F00250AE00498405D8E
:102F0000232803D00498405D2B2801D10220F0E74C
:102F10006D1C0498405D0028F0D147F030071198EF
:102F200008B147F0010705EB0900861C109820B195
:102F3000012804D002280AD105E000BF09E047F0CB
:102F40000207B61C05E047F00407B61C01E00320A9
:102F5000CFE700BF98F80000022822D14FF0000A06
:102F600000BF50460AF1010A18F800007D28F8D188
:102F7000AAF1030A0AF1070002900298A9EB000ADD
:102F8000F01CA0EB0A012046FFF7E0FD206808B91D
:102F90000420AEE7F21CA2EB0A012068FDF703F95A
:102FA0000BE0F11C2046FFF7D1FD206808B9042092
:102FB0009FE7F11C2068FDF7F6F86168481C606027
:102FC00020684754D4E9000281183046FFF7C6FC58
:102FD00001900198002804DA2046FFF7B1FC052093
:102FE00087E76168019808446060C5F3072162685B
:102FF000501C6060206881546268501C60602068CA
:103000008554D4E9001288182A460499FDF713F96B
:10301000606828446060109860B14FEA1B216268C4
:10302000501C6060206881546268501C6060206899
:1030300000F802B0B8F1000F19D098F8000002288B
:103040000BD1D4E9001288184146029AFDF792F894
:10305000616802980844606009E0D4E900128818A9
:103060004A464146FDF786F86068484460600020A3
:103070003FE770B505460C4604212046FFF766FD84
:10308000206808B9012070BD40216268501C606052
:103090002068815402216268501C6060206881545D
:1030A00029126268501C6060206881546268501C5C
:1030B0006060206885540020E5E770B505460C4641
:1030C00004212046FFF742FD206808B9012070BDA9
:1030D00070216268501C606020688154022162681F
:1030E000501C60602068815429126268501C606026
:1030F000206881546268501C6060206885540020FC
:10310000E5E770B505460C4604212046FFF71EFD95
:10311000206808B9012070BD50216268501C6060B1
:103120002068815402216268501C606020688154CC
:1031300029126268501C6060206881546268501CCB
:103140006060206885540020E5E770B505460C46B0
:1031500004212046FFF7FAFC206808B9012070BD61
:1031600062216268501C606020688154022162689C
:10317000501C60602068815429126268501C606095
:10318000206881546268501C60602068855400206B
:10319000E5E72DE9FF5F8046174699460E9C00261D
:1031A000B246B3460025B8F1000F03D1012004B0A8
:1031B000BDE8F09F0BE057F8250008B90220F6E7BC
:1031C00057F82500FDF722F80644681CC5B24D45A6
:1031D000F1DB09EB4900801C00EB060A0AF105014E
:1031E0002046FFF7B3FC206808B90320DFE78221FF
:1031F0006268501C606020688154D4E90002811824
:103200005046FFF7ABFB0FFA80FBBBF1000F04DA6F
:103210002046FFF795FB0420C9E7606858446060CA
:103220004FEA18216268501C60602068815462680F
:10323000501C6060206800F80280002524E057F8E8
:103240002500FCF7E3FF0646C6F307216268501C21
:103250006060206881546268501C606020688654F9
:10326000D4E90023D01857F825103246FCF7E3FFC5
:103270006068304460600198C1B26268501C606050
:1032800020688154681CC5B24D45D8DB00208EE70C
:10329000F0B504460D4626460123002010600021AB
:1032A00014E0775C07F07F07106807FB03001060ED
:1032B000705C00F0800008B9481CF0BDDB01B3F57C
:1032C000001F02D36FF00100F7E7491CA942E8DBB9
:1032D0004FF0FF30F1E72DE9F84380460C461546E4
:1032E0001E462F2108F10600FCF786FF0746002046
:1032F000009017B90120BDE8F8837F1C6A460421BD
:1033000008F10100FFF7C4FF252001F035FF206020
:10331000206808B90220EEE725212068FCF743FF6A
:10332000242239462068FCF725FF243700982C38E2
:1033300030803188481C01F01FFF2860286820B9C0
:10334000206801F095FE0320D5E73288511C2868DB
:10335000FCF729FF328839462868FCF70BFF00206C
:10336000C9E701464878022801D0012070478878D3
:1033700010B18878012801D1C878F7E7FF20F5E778
:103380002DE9FC5F81460D4614461E46DDE90C8B97
:1033900099F8000000F00F0A002001900AF00800E0
:1033A0000090CAF341008BF8000001AA042109F142
:1033B0000100FFF76DFF4844471C0198022802D323
:1033C0000AF0010010B1FF20BDE8FC9F7878397841
:1033D00040EA012020802088801C0199884201D980
:1033E000FF20F1E754A1B81CFCF7F4FE08B10F2050
:1033F000EAE79BF8000020B101283DD0022877D1F0
:103400003BE0009808B1FF20DEE72188481C01F06E
:10341000B3FE2860286808B9FF20D5E72288511C30
:103420002868FCF7C0FE2288B91C2868FCF7A2FEB9
:103430000198801E2188401AA8F80000B8F80010F2
:10344000481C01F099FE3060306820B9286801F00E
:103450000FFEFF20B8E7B8F80020511C3068FCF7D9
:10346000A2FEB8F80020B4F800C0BB1C0CEB0301AE
:103470003068FCF77FFE4FE000BF2088801C019978
:10348000884201D9FF209FE72088C01C395C208832
:10349000801C385C41EA00210E9801800E9808B922
:1034A000FF2091E72188481C01F066FE286028680B
:1034B00008B9FF2088E72288511C2868FCF773FEB2
:1034C0002288B91C2868FCF755FE0198001F218846
:1034D000401AA8F80000B8F80010481C01F04CFE93
:1034E0003060306828B9286801F0C2FDFF206BE722
:1034F00010E0B8F80020511C3068FCF754FEB8F812
:103500000020B4F800C03B1D0CEB03013068FCF751
:1035100031FE01E0FF2057E700BF2B212846FCF7D2
:103520006BFE20B923212846FCF766FE08B1FF2078
:103530004AE7002048E7000024637265710000003C
:1035400001464878022801D001207047887820B9C8
:10355000C8780A2801D10020F7E70120F5E70146E5
:103560004878022801D001207047887820B9C878AF
:103570000A2801D10020F7E70120F5E70146487845
:10358000022801D001207047887820B9C8780A281D
:1035900001D10020F7E70120F5E702465078022824
:1035A00001D0012070479078B0EB112F05D1D07871
:1035B000CBB2984201D10020F4E70120F2E70000ED
:1035C000F8B50446FF2720780511012D01DB0E2DEB
:1035D00001DD3846F8BD032D24D1002000906A4655
:1035E0000421601CFFF754FE2044461C009802286A
:1035F00003D3207800F0010008B1FF20EAE77078DB
:10360000317840EA0120801C0099884201D9FF20CE
:10361000E0E706A1B01CFCF7DDFD08B10F2700E0D4
:10362000032700E02F463846D4E700002463726584
:10363000710000000146FF208A78A2B9CA78142AD6
:1036400011D10A7932B1012A05D0022A04D0802A88
:1036500006D103E000BF00BF002003E0012001E02D
:10366000022000BF00BF7047014601208A781AB9C6
:10367000CA781E2A00D10020704700BFFEE7000074
:1036800010B5A0B0044680216846FCF78CFD11A05F
:103690000088208080216846FCF785FD0E4802786E
:1036A0000EA1684601F0BCFC69462046FCF786FD89
:1036B00080216846FCF777FD0DA1684601F0B0FC5B
:1036C00069462046FCF77AFD2046FCF79FFDC0B214
:1036D00020B010BD7B000000CC0B00202263686589
:1036E000636B5F646576696365223A222564220014
:1036F0007D00000010B5A0B0044680216846FCF7AC
:1037000052FD11A00088208080216846FCF74BFD07
:1037100001220EA1684601F083FC69462046FCF7B1
:103720004DFD80216846FCF73EFD0BA1684601F087
:1037300077FC69462046FCF741FD2046FCF766FD14
:10374000C0B220B010BD00007B0000002274696D83
:1037500065223A22256422007D00000070470000A7
:1037600070B5002100230F22C47804B3154C2468DF
:1037700004F4E064C4F5E064210AC1F10403CA4022
:10378000447804FA03F184781440214309010E4C73
:103790000678A155047804F01F050124AC40057893
:1037A0006D11AD0005F1E025C5F8004109E0047890
:1037B00004F01F050124AC40044D0678761145F84D
:1037C000264070BD0CED00E000E400E080E100E088
:1037D00002490143024A1160704700000000FA05E7
:1037E0000CED00E000B58DB024480078002842D1EF
:1037F00000F076F822A1684601F012FC6A4600212A
:10380000084600F06BF922A222A1684601F008FCEC
:103810006A460221002000F061F923A225A1684632
:1038200001F0FEFB6A460421002000F057F926A1B2
:10383000684601F0F5FB6A460621002000F04EF9CB
:10384000FEF7AAF903E04FF4967002F087FBFEF74B
:103850005DF80028F7D103E04FF4967002F07EFB8C
:1038600001211E4800F0E6FD0028F5D13C20034967
:10387000087000F035F80DB000BD0000C00B00204E
:103880002DC7EBB4F2BFAA57494649C8C8B5E300F3
:103890004E4554002DC3FBB3C63A2573202020208B
:1038A00020202020200000003132333435363738D4
:1038B000000000002DC3DCC2EB3A2573202020203D
:1038C00020202020200000002DC6B5C2CA3A203298
:1038D0002E342047487A20202000000038000020A5
:1038E00010B5002000F025F810BD10B504461CB935
:1038F0000021A62000F0A4F9012C03D10021A7206B
:1039000000F09EF910BD10B504463CB90021C82056
:1039100000F096F90021A12000F092F9012C07D1C6
:103920000021C02000F08CF90021A02000F088F9CF
:1039300010BD70B50646002419E004F1B001C8B20C
:10394000002100F07DF90021084600F079F90021FE
:10395000102000F075F9002505E00121304600F047
:103960006FF9681CC5B2822DF7DB601CC4B2082C4D
:10397000E3DB70BD08B50121042000F0ADF9B020F3
:10398000ADF8000010208DF8030003208DF8020030
:1039900069465048FEF7FDFAB0214E48FEF7D7FBC6
:1039A0000121082000F098F90320ADF80000102054
:1039B0008DF8030003208DF8020069464648FEF7A3
:1039C000E8FA03214448FEF7C2FB01214248FEF712
:1039D000BEFB642002F0C2FA01213F48FEF7B5FBAE
:1039E000C82002F0BBFA01213B48FEF7B0FB0021E2
:1039F000AE2000F025F90021084600F021F9002151
:103A0000102000F01DF90021402000F019F90021DC
:103A1000812000F015F90021CF2000F011F90021DC
:103A2000A12000F00DF90021C82000F009F90021C3
:103A3000A62000F005F90021A82000F001F90021DE
:103A40003F2000F0FDF80021D32000F0F9F800211C
:103A5000084600F0F5F80021D52000F0F1F800212B
:103A6000802000F0EDF80021D92000F0E9F80021D5
:103A7000F12000F0E5F80021DA2000F0E1F8002163
:103A8000122000F0DDF80021DB2000F0D9F8002141
:103A9000402000F0D5F80021202000F0D1F80021CE
:103AA000022000F0CDF800218D2000F0C9F800219F
:103AB000142000F0C5F80021A42000F0C1F8002176
:103AC000A62000F0BDF80021AF2000F0B9F8FFF704
:103AD00007FF08BD00080140000C01402DE9F04738
:103AE000074688461646002584E03078A02845DD44
:103AF00000253CE0702F04DD002708F1020000F0F3
:103B0000FF0830783E4911F8151088422ED17078A0
:103B1000012101EB45013A4A515C884226D14146D8
:103B2000384600F077F8002407E004EB4511354AE9
:103B3000505C012100F084F8641C102CF5D308F1CE
:103B40000100C1B2384600F065F8002408E004EB3B
:103B5000451110312B4A505C012100F071F8641CB2
:103B6000102CF4D307F11000C7B204E06D1C2648F6
:103B700000688542BED300BFB61C3BE07A2F04DD4F
:103B8000002708F1020000F0FF0831781F48FCF719
:103B900033FB8146B9F1000F2BD04146384600F087
:103BA00039F800240AE099F80010203904EB0111DB
:103BB000174A505C012100F043F8641C082CF2D332
:103BC00008F10100C1B2384600F024F800240BE0EF
:103BD00099F80010203904EB011108310C4A505CAF
:103BE000012100F02DF8641C082CF1D307F1080026
:103BF000C7B2761C307800287FF477AFBDE8F08735
:103C0000A40A0020440600204C0B0020EB0A0020F0
:103C10005400002070B504460D4605F1B001C8B24D
:103C2000002100F00DF8102141EA1410002100F0ED
:103C300007F804F00F00002100F002F870BD00004A
:103C400070B504460E4626B102211848FEF77FFAE9
:103C500003E002211548FEF778FA10211448FEF718
:103C600074FA002517E020211148FEF76EFA04F0DF
:103C7000800020B180210E48FEF769FA03E0802120
:103C80000B48FEF762FA20210948FEF760FA600649
:103C9000040E681CC5B2082DE5DB10210448FEF7B0
:103CA00056FA02210148FEF752FA70BD000C01409D
:103CB000000801407047000029B1064AD26902435A
:103CC000044BDA6104E0034AD2698243014BDA61B2
:103CD000704700000010024029B1064A9269024371
:103CE000044B9A6104E0034A92698243014B9A6152
:103CF000704700000010024030B50021002200246F
:103D000000232D4D6D6805F00C0121B1042905D06B
:103D1000082923D105E0294D056022E0274D0560E3
:103D20001FE0254D6D6805F47012234D6D6805F494
:103D30008034022505EB92421CB9214D55430560A4
:103D40000BE01D4D6D6805F400351DB11C4D55434C
:103D5000056002E0194D5543056002E0174D05600E
:103D600000BF00BF144D6D6805F0F0010909154D45
:103D70006B5C0568DD4045600F4D6D6805F4E061E2
:103D8000090A104D6B5C4568DD4085600A4D6D6821
:103D900005F46051C90A0B4D6B5C4568DD40C56098
:103DA000054D6D6805F44041890B074D6B5CC56896
:103DB000B5FBF3F5056130BD0010024000127A003A
:103DC00000093D00920B0020A20B002000B502224A
:103DD00009490A48006800F017FC02220649891CBC
:103DE0000748006800F010FC02220349091D05483D
:103DF000006800F009FC00BDC40B0020500B00203F
:103E0000540B0020580B002010B5044602F026FF8A
:103E10000848FDF747FC0849C860C8684FF07E5164
:103E2000FCF7ECFE03D20448C06803498860012017
:103E300010BD00005C0B0020B855002070B5044692
:103E40000D46FFF7C3FF012070BD000070B58CB0B8
:103E500006460020089009900A900B900790069063
:103E6000059004900024039000253046FFF7A8FB3E
:103E70000446E01E0D2870D2DFE800F028707B9326
:103E8000ADCDB5CDC1CDCDCD070004AB07AA06A9F8
:103E90003046FFF720FA0546BDB9BDF810306BA0DB
:103EA000DDE9061201F0ACF808AADDE90601FEF72B
:103EB00079FE50B96EA001F0A3F8099A91B2089862
:103EC000FDF76AFF08A8FEF73BFDA7E06E4803A9CF
:103ED00004AA07ABCDE90021029005AA06A9304645
:103EE000FFF74EFA0546002D36D1BDF810000090C0
:103EF000BDF8142065A0DDE9061301F081F89DF8F6
:103F00000C00012802D0022824D111E008A95E4843
:103F10000088FFF7AEF850B96BA001F071F8099A6C
:103F200091B20898FDF738FF08A8FEF709FD12E0E6
:103F300008A955480088FFF7E4F850B968A001F0D7
:103F40005FF8099A91B20898FDF726FF08A8FEF7D6
:103F5000F7FC00E000BF00BF60E05CE03046FFF728
:103F6000EFFA10B964A001F04BF83C206A490870E0
:103F700054E03046FFF702FB90B968A001F040F82A
:103F800008A90A20FFF7E1F850B96AA001F038F853
:103F9000099A91B20898FDF7FFFE08A8FEF7D0FC39
:103FA0003CE0394801883046FFF7F7FA90B967A03E
:103FB00001F026F808A90A20FFF77FF850B969A098
:103FC00001F01EF8099A91B20898FDF7E5FE08A8DD
:103FD000FEF7B6FC22E03046FFF7C1FA10B968A040
:103FE00001F00EF81AE03046FFF724FB18B96AA07A
:103FF00001F006F802E06FA001F002F80EE0304692
:10400000FFF732FB18B972A000F0FAFF02E077A0C8
:1040100000F0F6FF02E04FF0FF3500BF00BFFDF7F4
:1040200085FD681C08B90CB070BD079810B10798E1
:1040300002F08AF90F2C01D0032C05D1069801F06B
:1040400017F8079801F014F800BFECE7636D646996
:10405000643A2025732C207265713A2025732C2038
:104060007265715F6C656E3A2025640D0A00000070
:10407000546970733A0953656E6420436D645265E8
:1040800073700D0A00000000C20B0020746F70698D
:10409000633A2025732C20746F7069635F6C656EC2
:1040A0003A2025642C207061796C6F61643A202578
:1040B000732C207061796C6F61645F6C656E3A205F
:1040C00025640D0A00000000546970733A095365B5
:1040D0006E64205075626C69736841636B0D0A00F1
:1040E000546970733A0953656E64205075626C6947
:1040F00073685265630D0A00546970733A094D5133
:104100005454205075626C6973682053656E642046
:104110004F4B0D0A00000000C00B00205469707363
:104120003A09526576205075626C6973685265630E
:104130000D0A0000546970733A0953656E6420508B
:1041400075626C69736852656C0D0A00546970730E
:104150003A09526576205075626C69736852656CD5
:104160000D0A0000546970733A0953656E6420505B
:1041700075626C697368436F6D700D0A0000000012
:10418000546970733A09526576205075626C697390
:1041900068436F6D700D0A00546970733A094D5190
:1041A000545420537562736372696265204F4B0DDE
:1041B0000A000000546970733A094D515454205359
:1041C0007562736372696265204572720D0A000040
:1041D000546970733A094D51545420556E537562A9
:1041E000736372696265204F4B0D0A0054697073E6
:1041F0003A094D51545420556E5375627363726978
:104200006265204572720D0A0000000008B50121A8
:104210000820FFF761FD2020ADF8000004208DF894
:10422000030069460148FDF7B4FE08BD000C0140DB
:1042300008B501210820FFF74FFD2020ADF8000050
:1042400003208DF8020010208DF803006946024813
:10425000FDF79FFE08BD0000000C01407047000004
:1042600030B5C9B00446002045904690479048902C
:1042700000254FF4807105A8FBF795FF012C06D0AF
:10428000022C09D0032C0CD0042C14D10EE005A86C
:10429000FEF77CFB05460FE005A8FFF72BFA054665
:1042A0000AE005A8FFF7ECF9054605E005A8FFF7C9
:1042B000E7F9054600E000BF00BFCDB145A80121E8
:1042C0000022CDE900122B4605AACDE9021009A172
:1042D0000A20FEF7FDFD40B9469A91B24598FDF7D8
:1042E0005BFD45A8FEF72CFB02E007A000F088FE6E
:1042F00049B030BD2F62726F6164636173742F3691
:10430000362F7465737432005741524E0D0A000007
:1043100010B500F001F810BD0CB500200190009020
:104320003348006840F480303149086000BF3048AD
:10433000006800F4003000900198401C0190009843
:1043400018B90198B0F5A06FF1D12948006800F4C0
:10435000003010B10120009001E000200090009892
:10436000012843D12348006840F01000214908602B
:104370000846006820F0030008600846006840F026
:10438000020008601A4840681949486008464068B9
:1043900048600846406840F48060486008464068CD
:1043A00020F47C1048600846406840F4E8104860FB
:1043B0000846006840F08070086000BF0C48006844
:1043C00000F000700028F9D00948406820F0030090
:1043D000074948600846406840F00200486000BF56
:1043E0000348406800F00C000828F9D10CBD00001B
:1043F000001002400020024010B50123322209497A
:10440000094803F0FFF8012340F2DC52074908484D
:1044100003F0F8F8044803F025F9054803F022F901
:1044200010BD000089750008FC230020B975000844
:104430000C240020F0B585B004460D46002600206F
:10444000019002900390049006E054F826101FA0FB
:1044500000F0D6FD701CC6B2AE42F6DB01A82B46BA
:104460002246002100901420FEF793FE00282BD155
:10447000029A91B20198FDF78FFC4FF4FA70FDF7A4
:1044800063FB07463846FFF79BF809280AD115A0B9
:1044900000F0B6FD01A8FEF753FA00201849487154
:1044A00005B0F0BD17A000F0ABFD01A8FEF748FA7B
:1044B00013484079401CC0B211494871022801DDFF
:1044C00000F044F80120EBE70120E9E7537562733F
:1044D000637269626520546F7069633A2025730DB9
:1044E0000A000000546970733A094D515454205326
:1044F0007562736372696265204F4B0D0A0000009C
:10450000B8550020546970733A094D5154542053E2
:104510007562736372696265204572720D0A0000EC
:10452000042808D14FF0E021096941F004014FF05F
:10453000E022116107E04FF0E021096921F0040158
:104540004FF0E0221161704770470000012080F3B6
:10455000138800BF00BF0748006800F4E060064908
:104560000843001D03490860BFF34F8F00BF00BF21
:10457000FEE700000CED00E00000FA0510B513485E
:10458000006840F001001149086008464068104981
:1045900008400E494860084600680E4908400B492B
:1045A00008600846006820F48020086008464068DB
:1045B00020F4FE0048604FF41F008860FFF7A8FE5B
:1045C0004FF000600449086010BD00000010024078
:1045D0000000FFF8FFFFF6FE08ED00E010B5012136
:1045E0000820FFF779FB01210846FFF775FB012141
:1045F0000348FDF759FD01210248FDF755FD10BDA7
:10460000000430000002300030B503460D48048835
:10461000B3F1006F01D2012030BD4FF0006000EB1C
:104620008420984201D20220F6E703E0187808704F
:10463000491C5B1C101EA2F10105AAB2F6D100BFF5
:10464000EAE70000E0F7FF1F2DE9F84F80468946B2
:1046500016465648B0F800A0A8F1006B4FEADB25DB
:10466000CBF30A0000900098C0F50067B8F1006F26
:1046700002D20120BDE8F88F4FF0006000EB8A20E5
:10468000404501D20120F5E749484A4948604A4877
:104690004860BE4200DC37467DE0484803F0A8F899
:1046A00008B10220E6E74FF0006101EBC5200A14D3
:1046B0004349FFF7A9FF414803F09AF808B10220E7
:1046C000D8E73C48006940F002003A4908614FF0E1
:1046D000006000EBC52048610846006940F04000DA
:1046E0000861364803F084F808B10220C2E7314877
:1046F000006941F6FD7108402E490861002007E07D
:1047000019F80020009901442D4B5A54411C88B2DD
:10471000B842F5DB00242AE0284803F069F808B124
:104720000220A7E72348006940F001002149086101
:10473000234810F81400012101EB4401204A515C88
:1047400040EA01204FF0006101EBC52121F814007F
:104750001A4803F04DF808B102208BE715480069AC
:1047600041F6FE71084013490861601C84B2B4F53B
:10477000806FD1DBB74200D10EE0B9446D1C002040
:104780000090F01B86B2B6F5006F02DD4FF40060BA
:1047900000E03046074680E700BF0648006940F069
:1047A000800004490861002064E70000E0F7FF1F73
:1047B0002301674500200240AB89EFCD888888003F
:1047C0002C24002010B50121214800F05DF80028BC
:1047D0003DD020480068401C1E49086002F06AFF76
:1047E0001C4800681921B0FBF1F201FB120010B95E
:1047F000002019490870174800684FF47A71B0FB1F
:10480000F1F201FB1200F0B90020124908601348D0
:10481000C079401C1149C8710846C079062190FB37
:10482000F1F201FB120028B90C48007810B90220FF
:104830000A4908700A480078002804DD0848007812
:10484000401E074908700121014800F00EF810BD14
:1048500000080040DC0B0020E00B0020B8550020D1
:10486000C00B0020CA4302827047CA4302827047CD
:1048700021B1028842F00102028004E002884FF672
:10488000FE731A400280704730B5024600200023B4
:104890000024158A05EA0103958905EA010413B18C
:1048A0000CB1012000E0002030BD1AB183890B4318
:1048B000838102E083898B438381704700220288D1
:1048C0001D4B98420ED01D4B98420BD0B0F1804F3B
:1048D00008D01B4B984205D01A4B984202D01A4B75
:1048E000984204D14FF68F731A404B881A43174BE6
:1048F000984207D0164B984204D04FF6FF431A4017
:10490000CB881A4302808B8883850B8803850A4BEA
:1049100098420BD0094B984208D00E4B984205D0D4
:104920000D4B984202D00D4B984201D10B7A038671
:104930000123838270470000002C014000340140B5
:104940000004004000080040000C0040001000403F
:104950000014004000400140004401400048014074
:104960000146022901D1024800BF00BF7047000084
:104970000008004010B540F225511D4800F086F8AF
:1049800010B31B4800F03EF9C4B21A48008800F486
:104990000040C8B91748008800F4804060B10A2C74
:1049A00003D000201349088020E01248008840F41A
:1049B00000401049088019E00D2C06D10D480088F0
:1049C00040F480400B49088010E00A480088C0F39A
:1049D0000D0009490C5407480088401C054908800F
:1049E00008460088C72801DD0020088010BD0000AF
:1049F00000380140900B00208C43002010B540F29D
:104A000025510E4800F042F8B0B10D480088FF284B
:104A100002D900200A4908800848001D0088C1B258
:104A2000074802880088401C054B188005488154BF
:104A30002021024800F008F810BD000000480040A6
:104A4000A60B0020B84C002001F40072B2F5007FE4
:104A500000D100BFCA430280704721B1828942F46D
:104A60000052828104E082894DF6FF731A408281F0
:104A7000704702460020B1F5007F00D100BF1388C7
:104A80000B400BB1012000E00020704770B50246DA
:104A9000002400230025002040F66A16B14200D110
:104AA00000BFC1F3421501F01F03012606FA03F30C
:104AB000012D02D19689334006E0022D02D1168ADB
:104AC000334001E0968A33400C12012606FA04F4C2
:104AD0001688344013B10CB1012000E0002070BDF5
:104AE000F0B50346002400260025002040F66A1792
:104AF000B94200D100BF1846C1F3421401F01F06AD
:104B0000012707FA06F5012C01D10C3004E0022C34
:104B100001D1103000E014301AB107682F4307604C
:104B200002E00768AF430760F0BD00002DE9F047E1
:104B300086B005460E460024A24600BFA1460027C7
:104B4000B08900B100BF2F462C8A4CF6FF7004409C
:104B5000F08804432C82AC894EF6F3100440B088F0
:104B600031890843718908430443AC81AC8A4FF60C
:104B7000FF400440B0890443AC8201A8FFF7BCF8B1
:104B80001F48874202D1DDF810A001E0DDF80CA03B
:104B9000A88900F4004040B10AEBCA0000EB0A10FB
:104BA00031684900B0FBF1F807E00AEBCA0000EBFE
:104BB0000A1031688900B0FBF1F86420B8FBF0F00E
:104BC00004012009642101FB1089A88900F4004038
:104BD00040B1322000EBC900B0FBF1F000F007005B
:104BE000044308E0322000EB09106421B0FBF1F02F
:104BF00000F00F0004432C8106B0BDE8F0870000F0
:104C00000038014001468888C0F308007047C1F3AE
:104C1000080282807047000010B53248C07850B159
:104C2000012031490860322001F098F900202F4915
:104C3000C1F8840102E000202B4908602C4800885C
:104C40002C49096888420ADA2A480068962806DA58
:104C50002948007818B101202249C8702CE0244866
:104C6000808826490968884206DA2348007818B106
:104C700002201C49C8701FE01D494888FBF707FF48
:104C800004461F4881682046FBF7AEFF03D203208D
:104C90001449C87010E01348407918B10420114934
:104CA000C87009E00F48807818B105200D49C87018
:104CB00002E000200B49C8701148007880B110480C
:104CC0000078012802D0022805D103E00120FFF777
:104CD000C7FA00E000BF00BF0020094908708870D3
:104CE000012010BDCC0B0020840121420000214294
:104CF000C40B00200C00002008000020040000204D
:104D0000B855002030B58DB03248006800281DDD50
:104D100030480068962819DA2F480078B0B12D483D
:104D20002EA10268684600F07BF96A460021084619
:104D3000FEF7D4FE2C482DA10268684600F070F9F9
:104D40006A4602210020FEF7C9FE13E0002223A1DB
:104D5000684600F065F96A4600210846FEF7BEFE87
:104D6000002222A1684600F05BF96A460221002079
:104D7000FEF7B4FE204988682049FBF73FFF04D2C4
:104D80001FA1684600F04CF90AE01B498868FBF750
:104D9000CCFE044622460B461DA1684600F040F9B1
:104DA0006A4604210020FEF799FE1D48407920B98B
:104DB0001CA1684600F034F903E01EA1684600F02B
:104DC0002FF96A4606210020FEF788FE01200DB06B
:104DD00030BD00000C00002008000020D0C4C2CA72
:104DE000203A20253033640004000020D1AAD1F5F8
:104DF000203A202530336400B85500200000C84216
:104E000054656D7020203A20203030302020000082
:104E100054656D7020203A20252E32662043000014
:104E2000CC0B0020C0CFC8CBD7B4CCAC203A20D517
:104E3000FDB3A300C0CFC8CBD7B4CCAC203A20B5CB
:104E4000F8B5B90000BFFEE710B586B004460121F1
:104E500044F20400FEF740FF4FF40070ADF8140078
:104E600003208DF8160018208DF8170005A91C489E
:104E7000FDF78FF84FF48060ADF8140004208DF832
:104E8000170005A91648FDF784F825208DF80000C5
:104E900003208DF801008DF8020001208DF8030039
:104EA0006846FEF75DFC01940020ADF80800ADF8FF
:104EB0000A00ADF80C00ADF810000C20ADF80E00A3
:104EC00001A90848FFF732FE012240F225510548AA
:104ED000FFF706FE01210348FFF7BFFD06B010BD36
:104EE000000801400038014010B586B00446012199
:104EF0000820FEF7F1FE01218804FEF7DDFE1820F0
:104F00008DF817004FF48060ADF8140003208DF881
:104F1000160005A91D48FDF73CF804208DF8170080
:104F20004002ADF8140003208DF8160005A91748BB
:104F3000FDF72FF801940020ADF810000C20ADF81B
:104F40000E000020ADF80C00ADF80A00ADF8080026
:104F500001A90F48FFF7EAFD01210D48FFF77DFD8C
:104F6000012240F225510A48FFF7BAFD27208DF8AB
:104F7000000001208DF803008DF801008DF802007B
:104F80006846FEF7EDFB06B010BD0000000C0140C6
:104F90000048004070B504460D4600260DE014F8A8
:104FA000011B0748FFF733FE00BF40210448FFF70D
:104FB00060FD0028F9D0701C86B2AE42EFDB70BDF8
:104FC0000048004010B5022209490A480068FFF76E
:104FD0003BFB02220649891C07480068FFF734FBA7
:104FE00002220349091D05480068FFF72DFB10BD8B
:104FF000C40B0020500B0020540B0020580B002045
:105000000FB4054B10B503A9044A029800F0C8F983
:1050100010BC5DF814FB0000F55F00088C0B00204D
:105020000FB4084B10B504A902AA039800F0B8F910
:10503000044602A9002000F04AFD204610BC5DF89D
:1050400014FB0000CF5A0008490050EAC12018BFE5
:1050500004204A0D18BF40F0010040F2FF72B2EB8D
:10506000515F08BF40F00200012808BF05207047CB
:1050700030B528B1144C031F002021680A4605E012
:10508000084630BD9A4203D810465268002AF9D12A
:10509000002800D041680BD00468A3EB0005A542AE
:1050A00004D11B681C440346046002E0436000E036
:1050B00023603AB11C68D51AA54203D115682C4467
:1050C0001C6052685A6030BDEC0B00202DE9F041A5
:1050D0004F1E00EBC7010446D1E9000115461E46EC
:1050E00037F006020DD02A463346FBF7E6FB7F1E5B
:1050F00004EBC703D3E90023FBF738FB37F00602C4
:10510000F1D1022F25D0042F13D0062F18BFBDE8F0
:10511000F0812A463346FBF7D0FBD4E90A23FBF79C
:1051200025FB2A463346FBF7C8FBD4E90823FBF7E7
:105130001DFB2A463346FBF7C0FBD4E90623FBF7E9
:1051400015FB2A463346FBF7B8FBD4E90423FBF7EB
:105150000DFB2A463346FBF7B0FBD4E90223FBF7ED
:1051600005FB2A463346FBF7A8FBD4E90023BDE83C
:10517000F041FBF7FBBA00002DE9F04782460F4CE7
:1051800010480D4E0E4F001B4FF0000820F0070591
:105190004FF0010900221146504601F07BF800282B
:1051A00002D1306810B10020BDE8F0873C60C4E94E
:1051B0000058C6F80090EDE7F00B0020D455002011
:1051C000EC0B0020D06100200122FBF79BBE000009
:1051D000024A00201107FBF795BE000001FDFFFF0A
:1051E00002E008C8121F08C1002AFAD170477047B0
:1051F000002001E001C1121F002AFBD1704700000E
:105200000149086070470000F40B00202DE9FF5FA2
:1052100082B00021DDE90430020DDDF840B0034327
:1052200018D044F61050A2F2FF32424315141198E0
:1052300001281FD0A5EB0B00401C5FEA000A4FF0CD
:1052400000064E4FDFF83891B046504615D5CAF1EA
:10525000000413E0119801244AA3012801D16FEA48
:105260000B010298119AC0E90031C0E9024206B070
:10527000BDE8F09FCBF10000DFE704460021404A83
:10528000491842EB0450CDE9001012E0E00707D0C6
:1052900032463B4640464946FBF70FFB804689466F
:1052A00032463B4610461946FBF707FB06460F46BB
:1052B0006410002CEAD1DDE90401DDE90023BAF134
:1052C000000F06DAFBF7F9FA42464B46FBF7F5FA10
:1052D00005E0FBF764FB42464B46FBF760FB0446E8
:1052E0000E460022284BFBF74BFC03D84FF0FF3053
:1052F000014607E00022254B20463146FBF736FAEF
:10530000FBF774FE102409E0002C0ADB0A220023BC
:10531000FBF794FC039B30321A55641E50EA0102DD
:10532000F2D1641C039AC4F111031444119A012AA6
:1053300003D0012208430DD10AE0084304D0002025
:105340004FF0110B119072E7A3EB0B056D1E0DE0F2
:105350005B4504DD4FF0000205F1010504E003DACE
:105360004FF00002A5F10105002AECD00298119936
:10537000C0E90231C0E9004579E7000000001440AF
:105380000000F03F300000000000F0430000E03F6C
:1053900030380A2801D201207047002070470000F1
:1053A0002DE9FF4F95B09B468946064600250FE242
:1053B000252877D100242746F84A0121059400E0EA
:1053C000044316F8013F203B01FA03F01042F7D1E5
:1053D00030782A2811D06FF02F033078A0F13002F6
:1053E000092A16D8059A44F0020402EB820203EB64
:1053F00042021044761C0590EFE759F8042B059201
:10540000002A03DA504244F40054059044F00204A8
:10541000761C30782E2816D116F8010F44F00404BB
:105420002A280DD06FF02F023078A0F13003092B1D
:1054300009D807EB870302EB4303C718761CF3E791
:1054400059F8047B761C30786C280FD006DC4C2889
:1054500017D068280DD06A2814D104E0742810D021
:105460007A280FD10DE044F400140AE044F48014CB
:1054700001E044F440147278824202D104F58014B1
:10548000761C761C307866280BD013DC582877D031
:1054900009DC002875D04528F6D04628F4D04728E6
:1054A0001AD19DE118E0632835D0642879D06528A9
:1054B00012D195E1702873D008DC6728F1D06928F3
:1054C0006FD06E280DD06F2806D1B5E073282CD090
:1054D000752875D0782874D05A46179990476D1C56
:1054E00075E1C4F30250022809D003280DD0D9F881
:1054F000001004280DD00D6009F1040967E1D9F806
:105500000010EA17C1E90052F6E7D9F800100D8043
:10551000F2E70D70F0E719F8041B8DF80010002079
:105520008DF80100EA46012003E059F804AB4FF082
:10553000FF3061074FF0000102D40DE008F10101D6
:105540008846B9420FDA8045F8DB1AF808100029BE
:10555000F4D108E008F1010188468142FADB1AF82B
:1055600008100029F6D105985B46A0EB08072146F4
:105570003846179A00F094FA284400EB080507E033
:105580004DE029E10DE01AF8010B5A4617999047B2
:10559000B8F10108F7D25B4621463846179A13E165
:1055A00042E00A220092C4F302524FF0000A022A9B
:1055B00008D059F804CB032A4FEAEC710AD00DE069
:1055C00029E02AE009F1070121F00702F2E802C10F
:1055D000914609E00FFA8CFC4FEAEC71042A03D1E2
:1055E0004FFA8CFC4FEAEC71002907DA0A460021D9
:1055F000DCF1000C61EB02012D2202E0220504D552
:105600002B228DF80420012203E0E20701D02022A2
:10561000F7E7904659E00A2102E010220DE0102140
:105620004FF0000A00910BE010224FF0000A44F006
:1056300004040827009203E008224FF0000A0092B9
:10564000C4F30252022A05D059F804CB0021032AE0
:1056500008D009E009F1070121F00702F2E802C1D0
:10566000914605E01FFA8CFC042A01D10CF0FF0CD6
:105670004FF00008220728D5702806D0009B83F041
:10568000100353EA0A0305D00EE040228DF80420EF
:10569000012208E05CEA010206D030228DF80420E5
:1056A0008DF8050002229046009B83F0080353EA20
:1056B0000A030AD15CEA010201D1620705D5302252
:1056C0008DF804204FF001087F1E582804D034A024
:1056D00003900EA802900DE036A0F9E7534660460D
:1056E000009AFBF7ABFA84460398825C0298401E4E
:1056F000029002705CEA0100F0D1029806A9081A33
:1057000000F1200A600702D524F4803400E001276C
:10571000574502DDA7EB0A0000E0002000EB0A017C
:10572000009005984144401A0590E00306D45B467A
:105730002146179A059800F0B3F90544002706E0C2
:1057400001A85A46C05D179990476D1C7F1C4745BC
:10575000F6DBE0030CD55B462146179A059800F06E
:105760009FF9054404E030205A46179990476D1C74
:105770000099481E00900029F5DC08E00298029983
:105780005A460078491C0291179990476D1CBAF14E
:105790000001AAF1010AF1DC65E10000092801001D
:1057A0003031323334353637383961626364656697
:1057B0000000000030313233343536373839414259
:1057C000434445460000000000F058F90544761CAB
:1057D000307800287FF4ECAD19B02846BDE8F08F92
:1057E000620700D4062709F1070222F0070CFCE843
:1057F0000223E14603F000485FEA080C02D00FF2F2
:10580000702C0DE05FEA045C02D50FF2682C07E013
:105810005FEAC47C02D00FF2602C01E0AFF2700CA2
:105820004FF0FF3823F00043CDF850C065280CD06E
:1058300006DC452809D046281DD047283DD13DE04B
:10584000662818D067287ED138E00021112F01DBAF
:10585000112000E0781CCDE9000106A90EA8FFF791
:10586000D5FCDDE90F010E9A03910021009207F1AA
:10587000010A04914DE04FF000400097CDE901107E
:1058800006A90EA8FFF7C2FCDDE90F0203920E9BEA
:1058900011990022DDF80CA00093049211B9791C33
:1058A00000EB010AB7EB0A0004D4C0F1FF3007F1A6
:1058B000010A0490AAEB0700019044E0012F00DAEE
:1058C00001270021112F01DD112000E03846CDE92C
:1058D000000106A90EA8FFF799FCDDE90F010E9A59
:1058E0000391002104910092BA4621070CD4039938
:1058F000514500DA8A46BAF1010F05DD009AAAF196
:105900000101515C302908D0B84202DA10F1040FCD
:1059100006DA0121CDE9011015E0AAF10101E9E75C
:10592000002805DC049901440491AAEB000102E07F
:10593000411C514500DD8A460499401A401C0190E3
:105940004FF000400290200704D40198504501DB3D
:10595000CDF8048000208DF84F0002980DF14F071C
:10596000B0F1004F25D02B200E9002984FF0020886
:1059700000280CDA404202902D200E9007E00A2108
:105980000298FBF745F93031029007F8011DB8F194
:105990000001A8F10108F2DC02980028EFD1791E7D
:1059A0000E980870307800F0200040F0450007F8AD
:1059B000020D12A8C01B00F107081498007800B16E
:1059C000012000EB0A01019801EBE07105984144C8
:1059D000401A401E0590E00306D45B462146179A04
:1059E000059800F05DF805441498007818B15A46FF
:1059F000179990476D1CE00324D55B462146179A02
:105A0000059800F04DF805441CE00498002807DBD9
:105A1000DDE90301884203DD0098405C179901E04D
:105A2000179930205A469047049805F10105401C0B
:105A300004900198401E019004D12E205A461799D7
:105A400090476D1CBAF10001AAF1010ADDDC05E006
:105A500017F8010B5A46179990476D1CB8F10001D1
:105A6000A8F10108F4DC5B462146179A0598ABE6DD
:105A70002D0000002B000000200000002DE9F04167
:105A8000044600251E461746880404D405E039461E
:105A90002020B0476D1C641EF9D52846BDE8F08172
:105AA0002DE9F041044600251E469046C80301D565
:105AB000302700E02027880404D505E04146384619
:105AC000B0476D1C641EF9D52846BDE8F0810A6810
:105AD000531C0B60107070472DE9F84F04460D46BB
